{
  "address": "0xaac0C70f5bBCF2DfaFd3a22b941918fac3c8d242",
  "abi": [
    {
      "inputs": [
        {
          "internalType": "contract IUniswapV2Router02",
          "name": "_router",
          "type": "address"
        },
        {
          "internalType": "contract IUniswapV2Pair",
          "name": "_pair",
          "type": "address"
        },
        {
          "internalType": "address",
          "name": "_WETH",
          "type": "address"
        }
      ],
      "stateMutability": "nonpayable",
      "type": "constructor"
    },
    {
      "anonymous": false,
      "inputs": [
        {
          "indexed": true,
          "internalType": "address",
          "name": "previousOwner",
          "type": "address"
        },
        {
          "indexed": true,
          "internalType": "address",
          "name": "newOwner",
          "type": "address"
        }
      ],
      "name": "OwnershipTransferred",
      "type": "event"
    },
    {
      "anonymous": false,
      "inputs": [
        {
          "indexed": false,
          "internalType": "address",
          "name": "account",
          "type": "address"
        }
      ],
      "name": "Paused",
      "type": "event"
    },
    {
      "anonymous": false,
      "inputs": [
        {
          "indexed": false,
          "internalType": "address",
          "name": "account",
          "type": "address"
        }
      ],
      "name": "Unpaused",
      "type": "event"
    },
    {
      "inputs": [],
      "name": "WETH",
      "outputs": [
        {
          "internalType": "address",
          "name": "",
          "type": "address"
        }
      ],
      "stateMutability": "view",
      "type": "function"
    },
    {
      "inputs": [
        {
          "internalType": "address",
          "name": "tokenIn",
          "type": "address"
        },
        {
          "internalType": "uint256",
          "name": "fullInvestmentIn",
          "type": "uint256"
        }
      ],
      "name": "estimateSwap",
      "outputs": [
        {
          "internalType": "uint256",
          "name": "swapAmountIn",
          "type": "uint256"
        },
        {
          "internalType": "uint256",
          "name": "swapAmountOut",
          "type": "uint256"
        },
        {
          "internalType": "address",
          "name": "swapTokenOut",
          "type": "address"
        }
      ],
      "stateMutability": "view",
      "type": "function"
    },
    {
      "inputs": [],
      "name": "owner",
      "outputs": [
        {
          "internalType": "address",
          "name": "",
          "type": "address"
        }
      ],
      "stateMutability": "view",
      "type": "function"
    },
    {
      "inputs": [],
      "name": "pair",
      "outputs": [
        {
          "internalType": "contract IUniswapV2Pair",
          "name": "",
          "type": "address"
        }
      ],
      "stateMutability": "view",
      "type": "function"
    },
    {
      "inputs": [],
      "name": "paused",
      "outputs": [
        {
          "internalType": "bool",
          "name": "",
          "type": "bool"
        }
      ],
      "stateMutability": "view",
      "type": "function"
    },
    {
      "inputs": [],
      "name": "renounceOwnership",
      "outputs": [],
      "stateMutability": "nonpayable",
      "type": "function"
    },
    {
      "inputs": [],
      "name": "router",
      "outputs": [
        {
          "internalType": "contract IUniswapV2Router02",
          "name": "",
          "type": "address"
        }
      ],
      "stateMutability": "view",
      "type": "function"
    },
    {
      "inputs": [
        {
          "internalType": "address",
          "name": "newOwner",
          "type": "address"
        }
      ],
      "name": "transferOwnership",
      "outputs": [],
      "stateMutability": "nonpayable",
      "type": "function"
    },
    {
      "inputs": [
        {
          "internalType": "uint256",
          "name": "tokenAmountOutMin",
          "type": "uint256"
        }
      ],
      "name": "zapInFromETH",
      "outputs": [],
      "stateMutability": "payable",
      "type": "function"
    },
    {
      "inputs": [
        {
          "internalType": "contract IERC20",
          "name": "tokenIn",
          "type": "address"
        },
        {
          "internalType": "uint256",
          "name": "tokenInAmount",
          "type": "uint256"
        },
        {
          "internalType": "uint256",
          "name": "tokenAmountOutMin",
          "type": "uint256"
        }
      ],
      "name": "zapInFromToken",
      "outputs": [],
      "stateMutability": "nonpayable",
      "type": "function"
    },
    {
      "inputs": [
        {
          "internalType": "contract IERC20",
          "name": "tokenIn",
          "type": "address"
        },
        {
          "internalType": "uint256",
          "name": "tokenInAmount",
          "type": "uint256"
        },
        {
          "internalType": "uint256",
          "name": "tokenAmountOutMin",
          "type": "uint256"
        },
        {
          "internalType": "uint256",
          "name": "deadline",
          "type": "uint256"
        },
        {
          "internalType": "uint8",
          "name": "v",
          "type": "uint8"
        },
        {
          "internalType": "bytes32",
          "name": "r",
          "type": "bytes32"
        },
        {
          "internalType": "bytes32",
          "name": "s",
          "type": "bytes32"
        }
      ],
      "name": "zapInFromTokenWithPermit",
      "outputs": [],
      "stateMutability": "nonpayable",
      "type": "function"
    },
    {
      "inputs": [
        {
          "internalType": "uint256",
          "name": "withdrawAmount",
          "type": "uint256"
        },
        {
          "internalType": "address",
          "name": "desiredToken",
          "type": "address"
        },
        {
          "internalType": "uint256",
          "name": "desiredTokenOutMin",
          "type": "uint256"
        }
      ],
      "name": "zapOutToToken",
      "outputs": [],
      "stateMutability": "nonpayable",
      "type": "function"
    },
    {
      "inputs": [
        {
          "internalType": "uint256",
          "name": "withdrawAmount",
          "type": "uint256"
        },
        {
          "internalType": "address",
          "name": "desiredToken",
          "type": "address"
        },
        {
          "internalType": "uint256",
          "name": "desiredTokenOutMin",
          "type": "uint256"
        },
        {
          "internalType": "uint256",
          "name": "deadline",
          "type": "uint256"
        },
        {
          "internalType": "uint8",
          "name": "v",
          "type": "uint8"
        },
        {
          "internalType": "bytes32",
          "name": "r",
          "type": "bytes32"
        },
        {
          "internalType": "bytes32",
          "name": "s",
          "type": "bytes32"
        }
      ],
      "name": "zapOutToTokenWithPermit",
      "outputs": [],
      "stateMutability": "nonpayable",
      "type": "function"
    },
    {
      "stateMutability": "payable",
      "type": "receive"
    }
  ],
  "transactionHash": "0x7980ef7e5aa4daf0535f6d0269268b9b7faaa08b70d18590c3f2bd4255fd14c5",
  "args": [
    "0xF491e7B69E4244ad4002BC14e878a34207E38c29",
    "0x6bADcf8184a760326528b11057C00952811f77af",
    "0x21be370D5312f44cB42ce377BC9b8a0cEF1A4C83"
  ],
  "numDeployments": 1,
  "solcInputHash": "ca8a814f71c3d2faa524ae5be2451a49",
  "bytecode": "0x60e06040523480156200001157600080fd5b5060405162002a8038038062002a8083398101604081905262000034916200018d565b6200003f3362000124565b6000805460ff60a01b1916815560408051630d0e30db60e41b815290516001600160a01b0384169263d0e30db09290916004808301928492919082900301818388803b1580156200008f57600080fd5b505af1158015620000a4573d6000803e3d6000fd5b5050604051632e1a7d4d60e01b8152600060048201526001600160a01b0385169350632e1a7d4d92506024019050600060405180830381600087803b158015620000ed57600080fd5b505af115801562000102573d6000803e3d6000fd5b5050506001600160a01b039384166080525090821660a0521660c052620001e1565b600080546001600160a01b038381166001600160a01b0319831681178455604051919092169283917f8be0079c531659141344cd1fd0a4f28419497f9722a3daafe3b4186f6b6457e09190a35050565b6001600160a01b03811681146200018a57600080fd5b50565b600080600060608486031215620001a357600080fd5b8351620001b08162000174565b6020850151909350620001c38162000174565b6040850151909250620001d68162000174565b809150509250925092565b60805160a05160c05161279e620002e26000396000818160e60152818161026b01528181610d0e01528181610d850152818161197501526119f4015260008181610237015281816103fe01528181610484015281816105bb01528181610810015281816108af015281816109b101528181610b3101528181610bb801528181610c9d01528181610fd80152818161108b0152818161112a015281816112830152818161130a01528181611692015281816116ec0152818161176b01526117cf015260008181610312015281816106bf0152818161070001528181610ab5015281816114890152818161152901528181611c750152611cee015261279e6000f3fe6080604052600436106100d65760003560e01c8063a8aa1b311161007f578063e233ef4c11610059578063e233ef4c146102ad578063eacc526d146102c0578063f2fde38b146102e0578063f887ea401461030057600080fd5b8063a8aa1b3114610225578063ad5c464814610259578063db7a69571461028d57600080fd5b8063715018a6116100b0578063715018a61461019a5780638da5cb5b146101af578063a7927d06146101e157600080fd5b80634627c6021461011a578063507cabd21461013a5780635c975abb1461015a57600080fd5b3661011557336001600160a01b037f0000000000000000000000000000000000000000000000000000000000000000161461011357610113612256565b005b600080fd5b34801561012657600080fd5b50610113610135366004612292565b610334565b34801561014657600080fd5b506101136101553660046122f7565b6103fa565b34801561016657600080fd5b5060005474010000000000000000000000000000000000000000900460ff1660405190151581526020015b60405180910390f35b3480156101a657600080fd5b506101136107ea565b3480156101bb57600080fd5b506000546001600160a01b03165b6040516001600160a01b039091168152602001610191565b3480156101ed57600080fd5b506102016101fc36600461232f565b6107fe565b6040805193845260208401929092526001600160a01b031690820152606001610191565b34801561023157600080fd5b506101c97f000000000000000000000000000000000000000000000000000000000000000081565b34801561026557600080fd5b506101c97f000000000000000000000000000000000000000000000000000000000000000081565b34801561029957600080fd5b506101136102a836600461235b565b610c44565b6101136102bb3660046123a4565b610d0c565b3480156102cc57600080fd5b506101136102db3660046123bd565b610dad565b3480156102ec57600080fd5b506101136102fb3660046123f2565b610e8f565b34801561030c57600080fd5b506101c97f000000000000000000000000000000000000000000000000000000000000000081565b6040517fd505accf000000000000000000000000000000000000000000000000000000008152336004820152306024820152604481018790526064810185905260ff8416608482015260a4810183905260c481018290526001600160a01b0388169063d505accf9060e401600060405180830381600087803b1580156103b957600080fd5b505af11580156103cd573d6000803e3d6000fd5b506103e7925050506001600160a01b038816333089610f1c565b6103f18786610fd3565b50505050505050565b60007f00000000000000000000000000000000000000000000000000000000000000006001600160a01b0316630dfe16816040518163ffffffff1660e01b8152600401602060405180830381865afa15801561045a573d6000803e3d6000fd5b505050506040513d601f19601f8201168201806040525081019061047e9190612416565b905060007f00000000000000000000000000000000000000000000000000000000000000006001600160a01b031663d21220a76040518163ffffffff1660e01b8152600401602060405180830381865afa1580156104e0573d6000803e3d6000fd5b505050506040513d601f19601f820116820180604052508101906105049190612416565b9050836001600160a01b0316826001600160a01b031614806105375750836001600160a01b0316816001600160a01b0316145b6105ae5760405162461bcd60e51b815260206004820152603060248201527f5a61703a206465736972656420746f6b656e206e6f742070726573656e74206960448201527f6e206c697175696469747920706169720000000000000000000000000000000060648201526084015b60405180910390fd5b6105e36001600160a01b037f000000000000000000000000000000000000000000000000000000000000000016333088610f1c565b6105ec306116ce565b50506000846001600160a01b0316826001600160a01b03161461060f5781610611565b825b6040805160028082526060820183529293506000929091602083019080368337019050509050818160008151811061064b5761064b612449565b60200260200101906001600160a01b031690816001600160a01b031681525050858160018151811061067f5761067f612449565b60200260200101906001600160a01b031690816001600160a01b0316815250506106e3816000815181106106b5576106b5612449565b60200260200101517f0000000000000000000000000000000000000000000000000000000000000000611847565b6040516370a0823160e01b81523060048201526001600160a01b037f00000000000000000000000000000000000000000000000000000000000000008116916338ed1739918516906370a0823190602401602060405180830381865afa158015610751573d6000803e3d6000fd5b505050506040513d601f19601f82011682018060405250810190610775919061245f565b878430426040518663ffffffff1660e01b8152600401610799959493929190612478565b6000604051808303816000875af11580156107b8573d6000803e3d6000fd5b505050506040513d6000823e601f3d908101601f191682016040526107e091908101906124e9565b506103f1816118d8565b6107f2611b5a565b6107fc6000611bb4565b565b600080600080856001600160a01b03167f00000000000000000000000000000000000000000000000000000000000000006001600160a01b0316630dfe16816040518163ffffffff1660e01b8152600401602060405180830381865afa15801561086c573d6000803e3d6000fd5b505050506040513d601f19601f820116820180604052508101906108909190612416565b6001600160a01b0316149050808061093a5750856001600160a01b03167f00000000000000000000000000000000000000000000000000000000000000006001600160a01b031663d21220a76040518163ffffffff1660e01b8152600401602060405180830381865afa15801561090b573d6000803e3d6000fd5b505050506040513d601f19601f8201168201806040525081019061092f9190612416565b6001600160a01b0316145b6109ac5760405162461bcd60e51b815260206004820152602e60248201527f5a61703a20496e70757420746f6b656e206e6f742070726573656e7420696e2060448201527f6c6971756964697479207061697200000000000000000000000000000000000060648201526084016105a5565b6000807f00000000000000000000000000000000000000000000000000000000000000006001600160a01b0316630902f1ac6040518163ffffffff1660e01b8152600401606060405180830381865afa158015610a0d573d6000803e3d6000fd5b505050506040513d601f19601f82011682018060405250810190610a3191906125c5565b506dffffffffffffffffffffffffffff1691506dffffffffffffffffffffffffffff16915082610a62578082610a65565b81815b9092509050610a75878383611c1c565b6040517f054d50d40000000000000000000000000000000000000000000000000000000081526004810182905260248101849052604481018390529096507f00000000000000000000000000000000000000000000000000000000000000006001600160a01b03169063054d50d490606401602060405180830381865afa158015610b04573d6000803e3d6000fd5b505050506040513d601f19601f82011682018060405250810190610b28919061245f565b945082610bb6577f00000000000000000000000000000000000000000000000000000000000000006001600160a01b0316630dfe16816040518163ffffffff1660e01b8152600401602060405180830381865afa158015610b8d573d6000803e3d6000fd5b505050506040513d601f19601f82011682018060405250810190610bb19190612416565b610c38565b7f00000000000000000000000000000000000000000000000000000000000000006001600160a01b031663d21220a76040518163ffffffff1660e01b8152600401602060405180830381865afa158015610c14573d6000803e3d6000fd5b505050506040513d601f19601f82011682018060405250810190610c389190612416565b93505050509250925092565b6040517fd505accf000000000000000000000000000000000000000000000000000000008152336004820152306024820152604481018890526064810185905260ff8416608482015260a4810183905260c481018290527f00000000000000000000000000000000000000000000000000000000000000006001600160a01b03169063d505accf9060e401600060405180830381600087803b158015610ce957600080fd5b505af1158015610cfd573d6000803e3d6000fd5b505050506103f18787876103fa565b7f00000000000000000000000000000000000000000000000000000000000000006001600160a01b031663d0e30db0346040518263ffffffff1660e01b81526004016000604051808303818588803b158015610d6757600080fd5b505af1158015610d7b573d6000803e3d6000fd5b5050505050610daa7f000000000000000000000000000000000000000000000000000000000000000082610fd3565b50565b604051636eb1769f60e11b815233600482015230602482015282906001600160a01b0385169063dd62ed3e90604401602060405180830381865afa158015610df9573d6000803e3d6000fd5b505050506040513d601f19601f82011682018060405250810190610e1d919061245f565b1015610e6b5760405162461bcd60e51b815260206004820152601b60248201527f496e70757420746f6b656e206973206e6f7420617070726f766564000000000060448201526064016105a5565b610e806001600160a01b038416333085610f1c565b610e8a8382610fd3565b505050565b610e97611b5a565b6001600160a01b038116610f135760405162461bcd60e51b815260206004820152602660248201527f4f776e61626c653a206e6577206f776e657220697320746865207a65726f206160448201527f646472657373000000000000000000000000000000000000000000000000000060648201526084016105a5565b610daa81611bb4565b6040516001600160a01b0380851660248301528316604482015260648101829052610fcd9085907f23b872dd00000000000000000000000000000000000000000000000000000000906084015b60408051601f198184030181529190526020810180517bffffffffffffffffffffffffffffffffffffffffffffffffffffffff167fffffffff0000000000000000000000000000000000000000000000000000000090931692909217909152611dec565b50505050565b6000807f00000000000000000000000000000000000000000000000000000000000000006001600160a01b0316630902f1ac6040518163ffffffff1660e01b8152600401606060405180830381865afa158015611034573d6000803e3d6000fd5b505050506040513d601f19601f8201168201806040525081019061105891906125c5565b506dffffffffffffffffffffffffffff1691506dffffffffffffffffffffffffffff1691506000846001600160a01b03167f00000000000000000000000000000000000000000000000000000000000000006001600160a01b0316630dfe16816040518163ffffffff1660e01b8152600401602060405180830381865afa1580156110e7573d6000803e3d6000fd5b505050506040513d601f19601f8201168201806040525081019061110b9190612416565b6001600160a01b031614905080806111b55750846001600160a01b03167f00000000000000000000000000000000000000000000000000000000000000006001600160a01b031663d21220a76040518163ffffffff1660e01b8152600401602060405180830381865afa158015611186573d6000803e3d6000fd5b505050506040513d601f19601f820116820180604052508101906111aa9190612416565b6001600160a01b0316145b6112275760405162461bcd60e51b815260206004820152602e60248201527f5a61703a20696e70757420746f6b656e206e6f742070726573656e7420696e2060448201527f6c6971756964697479207061697200000000000000000000000000000000000060648201526084016105a5565b604080516002808252606082018352600092602083019080368337019050509050858160008151811061125c5761125c612449565b60200260200101906001600160a01b031690816001600160a01b03168152505081611308577f00000000000000000000000000000000000000000000000000000000000000006001600160a01b0316630dfe16816040518163ffffffff1660e01b8152600401602060405180830381865afa1580156112df573d6000803e3d6000fd5b505050506040513d601f19601f820116820180604052508101906113039190612416565b61138a565b7f00000000000000000000000000000000000000000000000000000000000000006001600160a01b031663d21220a76040518163ffffffff1660e01b8152600401602060405180830381865afa158015611366573d6000803e3d6000fd5b505050506040513d601f19601f8201168201806040525081019061138a9190612416565b8160018151811061139d5761139d612449565b6001600160a01b0392831660209182029290920101526040516370a0823160e01b81523060048201526000918816906370a0823190602401602060405180830381865afa1580156113f2573d6000803e3d6000fd5b505050506040513d601f19601f82011682018060405250810190611416919061245f565b9050600083156114325761142b828787611c1c565b9050611440565b61143d828688611c1c565b90505b611456836000815181106106b5576106b5612449565b6040517f38ed17390000000000000000000000000000000000000000000000000000000081526000906001600160a01b037f000000000000000000000000000000000000000000000000000000000000000016906338ed1739906114c69085908c90899030904290600401612478565b6000604051808303816000875af11580156114e5573d6000803e3d6000fd5b505050506040513d6000823e601f3d908101601f1916820160405261150d91908101906124e9565b9050611525846001815181106106b5576106b5612449565b60007f00000000000000000000000000000000000000000000000000000000000000006001600160a01b031663e8e337008660008151811061156957611569612449565b60200260200101518760018151811061158457611584612449565b60200260200101518560008151811061159f5761159f612449565b6020026020010151886115b2919061262b565b866001815181106115c5576115c5612449565b60209081029190910101516040517fffffffff0000000000000000000000000000000000000000000000000000000060e087901b1681526001600160a01b0394851660048201529390921660248401526044830152606482015260016084820181905260a48201523060c48201524260e4820152610104016060604051808303816000875af115801561165c573d6000803e3d6000fd5b505050506040513d601f19601f820116820180604052508101906116809190612644565b92506116b99150506001600160a01b037f0000000000000000000000000000000000000000000000000000000000000000163383611ed1565b6116c2856118d8565b50505050505050505050565b6040516370a0823160e01b81523060048201526000908190611792907f0000000000000000000000000000000000000000000000000000000000000000906001600160a01b038216906370a0823190602401602060405180830381865afa15801561173d573d6000803e3d6000fd5b505050506040513d601f19601f82011682018060405250810190611761919061245f565b6001600160a01b037f0000000000000000000000000000000000000000000000000000000000000000169190611ed1565b6040517f89afcb440000000000000000000000000000000000000000000000000000000081526001600160a01b03848116600483015260009182917f000000000000000000000000000000000000000000000000000000000000000016906389afcb449060240160408051808303816000875af1158015611817573d6000803e3d6000fd5b505050506040513d601f19601f8201168201806040525081019061183b9190612672565b90969095509350505050565b604051636eb1769f60e11b81523060048201526001600160a01b03828116602483015283169063dd62ed3e90604401602060405180830381865afa158015611893573d6000803e3d6000fd5b505050506040513d601f19601f820116820180604052508101906118b7919061245f565b6000036118d4576118d46001600160a01b03831682600019611f1a565b5050565b6000805b8251811015610e8a578281815181106118f7576118f7612449565b60209081029190910101516040516370a0823160e01b81523060048201526001600160a01b03909116906370a0823190602401602060405180830381865afa158015611947573d6000803e3d6000fd5b505050506040513d601f19601f8201168201806040525081019061196b919061245f565b91508115611b48577f00000000000000000000000000000000000000000000000000000000000000006001600160a01b03168382815181106119af576119af612449565b60200260200101516001600160a01b031603611b11576040517f2e1a7d4d000000000000000000000000000000000000000000000000000000008152600481018390527f00000000000000000000000000000000000000000000000000000000000000006001600160a01b031690632e1a7d4d90602401600060405180830381600087803b158015611a4057600080fd5b505af1158015611a54573d6000803e3d6000fd5b5050604080516000808252602082019283905293503392508591611a7891906126ba565b60006040518083038185875af1925050503d8060008114611ab5576040519150601f19603f3d011682016040523d82523d6000602084013e611aba565b606091505b5050905080611b0b5760405162461bcd60e51b815260206004820152601360248201527f455448207472616e73666572206661696c65640000000000000000000000000060448201526064016105a5565b50611b48565b611b483383858481518110611b2857611b28612449565b60200260200101516001600160a01b0316611ed19092919063ffffffff16565b80611b52816126d6565b9150506118dc565b6000546001600160a01b031633146107fc5760405162461bcd60e51b815260206004820181905260248201527f4f776e61626c653a2063616c6c6572206973206e6f7420746865206f776e657260448201526064016105a5565b600080546001600160a01b038381167fffffffffffffffffffffffff0000000000000000000000000000000000000000831681178455604051919092169283917f8be0079c531659141344cd1fd0a4f28419497f9722a3daafe3b4186f6b6457e09190a35050565b600080611c2a6002866126f0565b6040517f054d50d40000000000000000000000000000000000000000000000000000000081526004810182905260248101869052604481018590529091506000906001600160a01b037f0000000000000000000000000000000000000000000000000000000000000000169063054d50d490606401602060405180830381865afa158015611cbc573d6000803e3d6000fd5b505050506040513d601f19601f82011682018060405250810190611ce0919061245f565b905060006001600160a01b037f00000000000000000000000000000000000000000000000000000000000000001663ad615dec84611d1e818a612712565b611d28868a61262b565b6040517fffffffff0000000000000000000000000000000000000000000000000000000060e086901b168152600481019390935260248301919091526044820152606401602060405180830381865afa158015611d89573d6000803e3d6000fd5b505050506040513d601f19601f82011682018060405250810190611dad919061245f565b9050611dd78183611dbe8680612725565b611dc89190612725565b611dd291906126f0565b61204f565b611de1908861262b565b979650505050505050565b6000611e41826040518060400160405280602081526020017f5361666545524332303a206c6f772d6c6576656c2063616c6c206661696c6564815250856001600160a01b03166120bf9092919063ffffffff16565b805190915015610e8a5780806020019051810190611e5f919061273c565b610e8a5760405162461bcd60e51b815260206004820152602a60248201527f5361666545524332303a204552433230206f7065726174696f6e20646964206e60448201527f6f7420737563636565640000000000000000000000000000000000000000000060648201526084016105a5565b6040516001600160a01b038316602482015260448101829052610e8a9084907fa9059cbb0000000000000000000000000000000000000000000000000000000090606401610f69565b801580611f945750604051636eb1769f60e11b81523060048201526001600160a01b03838116602483015284169063dd62ed3e90604401602060405180830381865afa158015611f6e573d6000803e3d6000fd5b505050506040513d601f19601f82011682018060405250810190611f92919061245f565b155b6120065760405162461bcd60e51b815260206004820152603660248201527f5361666545524332303a20617070726f76652066726f6d206e6f6e2d7a65726f60448201527f20746f206e6f6e2d7a65726f20616c6c6f77616e63650000000000000000000060648201526084016105a5565b6040516001600160a01b038316602482015260448101829052610e8a9084907f095ea7b30000000000000000000000000000000000000000000000000000000090606401610f69565b600060038211156120b057508060006120696002836126f0565b612074906001612712565b90505b818110156120aa5790508060028161208f81866126f0565b6120999190612712565b6120a391906126f0565b9050612077565b50919050565b81156120ba575060015b919050565b60606120ce84846000856120d6565b949350505050565b60608247101561214e5760405162461bcd60e51b815260206004820152602660248201527f416464726573733a20696e73756666696369656e742062616c616e636520666f60448201527f722063616c6c000000000000000000000000000000000000000000000000000060648201526084016105a5565b600080866001600160a01b0316858760405161216a91906126ba565b60006040518083038185875af1925050503d80600081146121a7576040519150601f19603f3d011682016040523d82523d6000602084013e6121ac565b606091505b5091509150611de18783838760608315612227578251600003612220576001600160a01b0385163b6122205760405162461bcd60e51b815260206004820152601d60248201527f416464726573733a2063616c6c20746f206e6f6e2d636f6e747261637400000060448201526064016105a5565b50816120ce565b6120ce838381511561223c5781518083602001fd5b8060405162461bcd60e51b81526004016105a5919061275e565b634e487b7160e01b600052600160045260246000fd5b6001600160a01b0381168114610daa57600080fd5b803560ff811681146120ba57600080fd5b600080600080600080600060e0888a0312156122ad57600080fd5b87356122b88161226c565b96506020880135955060408801359450606088013593506122db60808901612281565b925060a0880135915060c0880135905092959891949750929550565b60008060006060848603121561230c57600080fd5b83359250602084013561231e8161226c565b929592945050506040919091013590565b6000806040838503121561234257600080fd5b823561234d8161226c565b946020939093013593505050565b600080600080600080600060e0888a03121561237657600080fd5b8735965060208801356123888161226c565b955060408801359450606088013593506122db60808901612281565b6000602082840312156123b657600080fd5b5035919050565b6000806000606084860312156123d257600080fd5b83356123dd8161226c565b95602085013595506040909401359392505050565b60006020828403121561240457600080fd5b813561240f8161226c565b9392505050565b60006020828403121561242857600080fd5b815161240f8161226c565b634e487b7160e01b600052604160045260246000fd5b634e487b7160e01b600052603260045260246000fd5b60006020828403121561247157600080fd5b5051919050565b600060a082018783526020878185015260a0604085015281875180845260c086019150828901935060005b818110156124c85784516001600160a01b0316835293830193918301916001016124a3565b50506001600160a01b03969096166060850152505050608001529392505050565b600060208083850312156124fc57600080fd5b825167ffffffffffffffff8082111561251457600080fd5b818501915085601f83011261252857600080fd5b81518181111561253a5761253a612433565b8060051b604051601f19603f8301168101818110858211171561255f5761255f612433565b60405291825284820192508381018501918883111561257d57600080fd5b938501935b8285101561259b57845184529385019392850192612582565b98975050505050505050565b80516dffffffffffffffffffffffffffff811681146120ba57600080fd5b6000806000606084860312156125da57600080fd5b6125e3846125a7565b92506125f1602085016125a7565b9150604084015163ffffffff8116811461260a57600080fd5b809150509250925092565b634e487b7160e01b600052601160045260246000fd5b8181038181111561263e5761263e612615565b92915050565b60008060006060848603121561265957600080fd5b8351925060208401519150604084015190509250925092565b6000806040838503121561268557600080fd5b505080516020909101519092909150565b60005b838110156126b1578181015183820152602001612699565b50506000910152565b600082516126cc818460208701612696565b9190910192915050565b600060001982036126e9576126e9612615565b5060010190565b60008261270d57634e487b7160e01b600052601260045260246000fd5b500490565b8082018082111561263e5761263e612615565b808202811582820484141761263e5761263e612615565b60006020828403121561274e57600080fd5b8151801515811461240f57600080fd5b602081526000825180602084015261277d816040850160208701612696565b601f01601f1916919091016040019291505056fea164736f6c6343000811000a",
  "devdoc": {
    "author": "Wrap That Potassium <wrap-that-potassium@protonmail.com>",
    "details": "inspired by Beefy contract https://github.com/beefyfinance/beefy-contracts/blob/master/contracts/BIFI/zaps/BeefyZapUniswapV2.txt",
    "kind": "dev",
    "methods": {
      "estimateSwap(address,uint256)": {
        "params": {
          "fullInvestmentIn": "the input amount",
          "tokenIn": "the input token"
        },
        "returns": {
          "swapAmountIn": "the input amount which would be swapped",
          "swapAmountOut": "the output amount after such a swap",
          "swapTokenOut": "the address of the output token"
        }
      },
      "owner()": {
        "details": "Returns the address of the current owner."
      },
      "paused()": {
        "details": "Returns true if the contract is paused, and false otherwise."
      },
      "renounceOwnership()": {
        "details": "Leaves the contract without owner. It will not be possible to call `onlyOwner` functions anymore. Can only be called by the current owner. NOTE: Renouncing ownership will leave the contract without an owner, thereby removing any functionality that is only available to the owner."
      },
      "transferOwnership(address)": {
        "details": "Transfers ownership of the contract to a new account (`newOwner`). Can only be called by the current owner."
      },
      "zapInFromETH(uint256)": {
        "params": {
          "tokenAmountOutMin": "the minimum amount of the other token from the pair expected with the swap"
        }
      },
      "zapInFromToken(address,uint256,uint256)": {
        "details": "this function assumes an approval for `tokenId` was done previously for this contract",
        "params": {
          "tokenAmountOutMin": "the minimum amount of the other token from the pair expected with the swap",
          "tokenIn": "the token to zap in from",
          "tokenInAmount": "the amount of `tokenIn` to create liquidity from"
        }
      },
      "zapInFromTokenWithPermit(address,uint256,uint256,uint256,uint8,bytes32,bytes32)": {
        "params": {
          "deadline": "deadline for the swap",
          "r": "permit signature",
          "s": "permit signature",
          "tokenAmountOutMin": "the minimum amount of the other token from the pair expected with the swap",
          "tokenIn": "the token to zap in from",
          "tokenInAmount": "the amount of `tokenIn` to create liquidity from",
          "v": "permit signature"
        }
      },
      "zapOutToToken(uint256,address,uint256)": {
        "details": "this function assumes an approval for `tokenId` was done previously for this contract",
        "params": {
          "desiredToken": "the token to zap out to",
          "desiredTokenOutMin": "the minimum amount of the other token from the pair expected with the swap",
          "withdrawAmount": "amount of LP to withdraw"
        }
      },
      "zapOutToTokenWithPermit(uint256,address,uint256,uint256,uint8,bytes32,bytes32)": {
        "params": {
          "deadline": "deadline for the swap",
          "desiredToken": "the token to zap out to",
          "desiredTokenOutMin": "the minimum amount of the other token from the pair expected with the swap",
          "r": "permit signature",
          "s": "permit signature",
          "v": "permit signature",
          "withdrawAmount": "amount of LP to withdraw"
        }
      }
    },
    "title": "Zap in/out contract for wBAN farms",
    "version": 1
  },
  "userdoc": {
    "kind": "user",
    "methods": {
      "estimateSwap(address,uint256)": {
        "notice": "Estimate a swap from `tokenIn` for amount `fullInvestmentIn`"
      },
      "zapInFromETH(uint256)": {
        "notice": "Zap in from \"ETH\"."
      },
      "zapInFromToken(address,uint256,uint256)": {
        "notice": "Zap in from token `tokenId`."
      },
      "zapInFromTokenWithPermit(address,uint256,uint256,uint256,uint8,bytes32,bytes32)": {
        "notice": "Zap in from token `tokenId`, using permit feature (EIP-2612)."
      },
      "zapOutToToken(uint256,address,uint256)": {
        "notice": "Zap out to token `desiredToken`."
      },
      "zapOutToTokenWithPermit(uint256,address,uint256,uint256,uint8,bytes32,bytes32)": {
        "notice": "Zap out to token `desiredToken`, using permit feature (EIP-2612) of the LP token."
      }
    },
    "version": 1
  },
  "storageLayout": {
    "storage": [
      {
        "astId": 7,
        "contract": "contracts/WBANFarmZap.sol:WBANFarmZap",
        "label": "_owner",
        "offset": 0,
        "slot": "0",
        "type": "t_address"
      },
      {
        "astId": 130,
        "contract": "contracts/WBANFarmZap.sol:WBANFarmZap",
        "label": "_paused",
        "offset": 20,
        "slot": "0",
        "type": "t_bool"
      }
    ],
    "types": {
      "t_address": {
        "encoding": "inplace",
        "label": "address",
        "numberOfBytes": "20"
      },
      "t_bool": {
        "encoding": "inplace",
        "label": "bool",
        "numberOfBytes": "1"
      }
    }
  }
}